S01700004763634170706C69636174696F6E312E737265635B
S11300000C942A000C9447000C9447000C9447006D
S11300100C9447000C9447000C9447000C94470040
S11300200C9447000C9447000C9447000C94470030
S11300300C9449000C9447000C9447000C9447001E
S11300400C9447000C9447000C9447000C94470010
S11300500C94470011241FBECFE5D4E0DEBFCDBF12
S113006010E0A0E6B0E0EAEFF0E002C005900D92E7
S1130070A236B107D9F720E0A2E6B0E001C01D9294
S1130080A436B207E1F70E9458000C947B000C944C
S113009000001F920F920FB60F9211248F9380913C
S11300A062008CB98F910F900FBE0F901F9018951E
S11300B010BC83E389B988E38AB986E880BD87B137
S11300C0836687B986B1836886B98FE19EE4019718
S11300D0F1F700C000007894309160002091610035
S11300E05AE040E0832F922F01968B3F9105E4F371
S10D00F0352F242FF7CFF894FFCF2B
S10500FA0A00F6
S9030000FC
