S01C00007472616E736D69742068656172742070756C73652E7372656319
S11300000C942A000C943F000C943F000C943F0085
S11300100C943F000C943F000C943F000C943F0060
S11300200C943F000C943F000C943F000C943F0050
S11300300C944D000C943F000C943F000C943F0032
S11300400C943F000C943F000C943F000C943F0030
S11300500C943F0011241FBECFE5D4E0DEBFCDBF1A
S113006010E0A0E6B0E0E0E5F1E002C005900D92FA
S1130070A436B107D9F70E9441000C94A6000C9451
S11300800000789410BC83E389B988E38AB986E8D0
S113009080BD81B38C6F81BBFFCF1F920F920FB6CF
S11300A00F9211248F939F9380916200909163002B
S11300B08130910549F48CEC8CB982E090E0909306
S11300C06300809362003BC08230910549F48DEC5B
S11300D08CB983E090E090936300809362002FC01A
S11300E08330910549F482E08CB984E090E09093E8
S11300F063008093620023C08430910541F41CB8EE
S113010085E090E0909363008093620018C085308E
S1130110910551F4809160008CB986E090E0909351
S11301206300809362000BC0069749F480916100DC
S11301308CB981E090E090936300809362009F917A
S11301408F910F900FBE0F901F901895F894FFCFCA
S1070150FFAA0100FD
S9030000FC
