S00D000070726F63632E7372656300
S11300000C942A000C943C000C943C000C943C008E
S11300100C943C000C943C000C943C000C943C006C
S11300200C943C000C943C000C943C000C943C005C
S11300300C943E000C943C000C943C000C943C004A
S11300400C943C000C943C000C943C000C943C003C
S11300500C943C0011241FBECFE5D4E0DEBFCDBF1D
S113006020E0A0E6B0E001C01D92AA36B207E1F795
S11300700E948B000C9452010C9400001F920F926A
S11300800FB60F9211242F933F934F935F936F9367
S11300907F938F939F93AF93BF93EF93FF9380913D
S11300A068009091690001969093690080936800BC
S11300B0019759F460916000709161008091620031
S11300C0909163000E94C0006CB980916800909187
S11300D06900029779F460916400709165008091E1
S11300E06600909167000E94C0006CB9109269008C
S11300F010926800FF91EF91BF91AF919F918F9102
S11301007F916F915F914F913F912F910F900FBE0F
S11301100F901F90189510BC8CE089B988E38AB9B8
S113012086E880BD87B1836487B986B1876886B95C
S11301308FE19EE40197F1F700C000007894369AAD
S1130140349BFECF349A64B170E080E090E00E946A
S1130150EC00609360007093610080936200909360
S1130160630065B170E080E090E00E94EC00609371
S11301706400709365008093660090936700DFCFFE
S113018070D088F09F5790F0B92F9927B751A0F0FD
S1130190D1F0660F771F881F991F1AF0BA95C9F717
S11301A012C0B13081F077D0B1E0089574C0672FE8
S11301B0782F8827B85F39F0B93FCCF386957795C7
S11301C06795B395D9F73EF49095809570956195B0
S11301D07F4F8F4F9F4F0895E89409C097FB3EF4DB
S11301E090958095709561957F4F8F4F9F4F992380
S11301F0A9F0F92F96E9BB279395F69587957795FE
S11302006795B795F111F8CFFAF4BB0F11F460FFBD
S11302101BC06F5F7F4F8F4F9F4F16C0882311F015
S113022096E911C0772321F09EE8872F762F05C029
S1130230662371F096E8862F70E060E02AF09A95C4
S1130240660F771F881FDAF7880F9695879597F9B9
S1130250089557FD9058440F551F59F05F3F71F0B2
S11302604795880F97FB991F61F09F3F79F0879519
S11302700895121613061406551FF2CF4695F1DFA2
S113028008C0161617061806991FF1CF8695710532
S1130290610508940895E894BB2766277727CB0166
S10B02A097F90895F894FFCFCB
S9030000FC
